:020000040800F2
:1000000000000220355500088D5000089950000866
:100010009F500008A5500008AB50000800000000E9
:10002000000000000000000000000000B1500008C7
:10003000BD50000800000000C9500008D55000085D
:100040008555000885550008855500088555000828
:100050008555000885550008855500088555000818
:100060008555000885550008855500088555000808
:1000700085550008855500088555000885550008F8
:1000800085550008855500088555000885550008E8
:1000900085550008855500088555000885550008D8
:1000A00085550008E1500008855500088555000871
:1000B00085550008855500088555000885550008B8
:1000C00085550008855500088555000885550008A8
:1000D00085550008F55000080951000885550008AD
:1000E0008555000885550008855500088555000888
:1000F0008555000885550008855500088555000878
:100100008555000885550008855500088555000867
:1001100085550008855500081D51000885550008C3
:100120008555000885550008855500088555000847
:100130008555000885550008855500088555000837
:100140008555000885550008855500088555000827
:100150008555000885550008855500088555000817
:100160008555000885550008855500088555000807
:1001700085550008855500088555000800000000D9
:080180008555000885550008B3
:1001900010B5054C237833B9044B13B10448AFF3C1
:1001A00000800123237010BDB80100200000000072
:1001B000B87E000808B5034B1BB103490348AFF3F1
:1001C000008008BD00000000BC010020B87E0008CF
:1001D00053B94AB9002908BF00281CBF4FF0FF31AE
:1001E0004FF0FF3000F074B9ADF1080C6DE904CEAA
:1001F00000F006F8DDF804E0DDE9022304B0704702
:100200002DE9F047089E04468846002B40F0858083
:100210008A42154648D9B2FA82F24AB1C2F12007A1
:1002200001FA02F320FA07F7954047EA03089440E1
:100230004FEA154E230CB8FBFEF71FFA85FC0EFBA8
:10024000178843EA084307FB0CF1994209D9EB18D8
:1002500007F1FF3080F0E380994240F2E080023FF6
:100260002B445B1AA4B2B3FBFEF00EFB103344EA3E
:10027000034400FB0CFCA44509D92C1900F1FF3301
:1002800080F0CB80A44540F2C88002382C4440EA7C
:100290000740A4EB0C0400271EB1D4400023C6E99C
:1002A00000433946BDE8F087002A53D0B2FA82F203
:1002B000002A40F0B680491B4FEA154E1FFA85F818
:1002C0000127B1FBFEFC230C0EFB1C1143EA01438A
:1002D00008FB0CF1994207D9EB180CF1FF3002D260
:1002E000994200F2EC808446591AA3B2B1FBFEF0A9
:1002F0000EFB101443EA044408FB00F8A04507D99C
:100300002C1900F1FF3302D2A04500F2DC80184620
:10031000A4EB080440EA0C40BEE78B4208D9002E4B
:1003200078D00027C6E9000138463946BDE8F08795
:10033000B3FA83F77FB98B4202D3824200F2BD80C9
:10034000841A61EB030301209846002EA9D0C6E968
:100350000048A6E7FFDEC7F12005BB4022FA05FCF6
:100360004CEA030C01FA07F420FA05F821FA05F328
:100370004FEA1C4E48EA0404B3FBFEF9210C0EFBC5
:1003800019331FFA8CF841EA034309FB08FA9A452E
:1003900002FA07F200FA07F10BD91CEB030309F18B
:1003A000FF3080F088809A4540F28580A9F10209EB
:1003B0006344A3EB0A03A4B2B3FBFEF00EFB1033BD
:1003C00044EA034400FB08F8A04508D91CEB0404E8
:1003D00000F1FF336BD2A04569D90238644440EA8A
:1003E0000940A4EB0804A0FB02894C45C6464B46D5
:1003F00054D351D0002E69D0B1EB0E0264EB03044C
:1004000004FA05F522FA07F3FC401D43C6E900543F
:10041000002746E73746304643E7184637E70746A2
:100420001FE7C2F1200320FA03F7954001FA02F01A
:1004300021FA03F34FEA154E3843010CB3FBFEF7E4
:100440001FFA85F80EFB173341EA034107FB08F357
:100450008B4204FA02F407D9691807F1FF3C28D24D
:100460008B4226D9023F2944CB1A81B2B3FBFEF05E
:100470000EFB103341EA034100FB08F38B4207D91E
:10048000691800F1FF3C10D28B420ED90238294482
:10049000C91A40EA074714E74145ABD2B8EB020E50
:1004A00069EB0C0201381346A4E76046F0E71846F2
:1004B00095E76746D8E781467BE7384645E7ACF1E4
:1004C000020C2B4410E702382C4421E73746E8E6BB
:1004D000704700BF034613F8012B002AFBD1181AFE
:1004E0000138704710F8012B11F8013B012A28BF91
:1004F0009A42F7D0D01A70470000000000000000B8
:1005000001F0FF01102A2BDB10F0070F08D010F8C4
:10051000013B013A8B422DD010F0070F42B3F6D1C8
:10052000F0B441EA012141EA014122F007047FF0E1
:1005300000070023F0E80256083C85EA010586EA38
:10054000010685FA47F5A3FA87F586FA47F6A5FA74
:1005500087F68EB9EED1F0BC01F0FF0102F0070280
:1005600032B110F8013B013A83EA010313B1F8D12B
:100570000020704701387047002D06BF354603380C
:10058000073815F0010F07D1013015F4807F02BF45
:10059000013015F4C03F0130F0BC0138704700BF96
:1005A00080B500AF0E4B1B680D4A43F40073136017
:1005B0000B4B1B680A4A43F480631360084B1B68AB
:1005C000074A43F480731360032000F0F3F800201F
:1005D00004F002FD04F0DAFC0023184680BD00BFE1
:1005E000003C024080B400AF054B1B781A46054B17
:1005F0001B681344034A136000BFBD4680BC7047AC
:1006000000000020D401002080B400AF024B1B6822
:100610001846BD4680BC7047D401002080B584B028
:1006200000AF7860FFF7F0FFB8607B68FB60FB68A5
:10063000B3F1FF3F05D0094B1B781A46FB68134402
:10064000FB6000BFFFF7E0FF0246BB68D31AFA6801
:100650009A42F7D800BF1037BD4680BD0000002089
:1006600080B485B000AF78607B6803F00703FB605F
:100670000C4BDB68BB60BA684FF6FF031340BB60EE
:10068000FB681A02BB68134343F0BF6343F40033B3
:10069000BB60044ABB68D36000BF1437BD4680BC52
:1006A000704700BF00ED00E080B400AF044BDB6892
:1006B0001B0A03F007031846BD4680BC704700BF05
:1006C00000ED00E080B483B000AF0346FB7197F902
:1006D0000730002B0BDBFB7903F01F02064997F96B
:1006E00007305B09012000FA02F241F8232000BF25
:1006F0000C37BD4680BC704700E100E080B483B099
:1007000000AF03463960FB7197F90730002B0ADB15
:100710003B68DAB20C4997F907301201D2B20B44A8
:1007200083F800230AE03B68DAB20849FB7903F05A
:100730000F03043B1201D2B20B441A7600BF0C37F0
:10074000BD4680BC704700BF00E100E000ED00E066
:1007500080B489B000AFF860B9607A60FB6803F0DC
:100760000703FB61FB69C3F10703042B28BF0423C4
:10077000BB61FB690433062B02D9FB69033B00E034
:1007800000237B614FF0FF32BB6902FA03F3DA43C7
:10079000BB681A407B699A404FF0FF317B6901FAD0
:1007A00003F3D9437B680B40134318462437BD46F7
:1007B00080BC704780B582B000AF78607868FFF782
:1007C0004FFF00BF0837BD4680BD80B586B000AF83
:1007D0000346B9607A60FB7300237B61FFF764FF17
:1007E00078617A68B9687869FFF7B2FF024697F9CD
:1007F0000F3011461846FFF781FF00BF1837BD467E
:1008000080BD80B582B000AF0346FB7197F9073019
:100810001846FFF757FF00BF0837BD4680BD80B4BC
:1008200083B000AF78607B6893F83530DBB2022B81
:1008300004D07B6880225A6501230CE07B68052286
:1008400083F835207B681B681A687B681B6822F078
:1008500001021A60002318460C37BD4680BC704761
:1008600080B489B000AF7860396000237B610023D9
:100870003B610023BB610023FB616BE10122FB694B
:1008800002FA03F37B613B681B687A6913403B61A2
:100890003A697B699A4240F05A813B685B68022B57
:1008A00003D03B685B68122B23D1FB69DA087B68B5
:1008B000083253F82230BB61FB6903F007039B0049
:1008C0000F2202FA03F3DB43BA691340BB613B68B2
:1008D0001A69FB6903F007039B0002FA03F3BA6984
:1008E0001343BB61FB69DA087B680832B96943F8D6
:1008F00022107B681B68BB61FB695B00032202FA64
:1009000003F3DB43BA691340BB613B685B6803F0E8
:100910000302FB695B0002FA03F3BA691343BB618C
:100920007B68BA691A603B685B68012B0BD03B6837
:100930005B68022B07D03B685B68112B03D03B68D8
:100940005B68122B30D17B689B68BB61FB695B00E5
:10095000032202FA03F3DB43BA691340BB613B682D
:10096000DA68FB695B0002FA03F3BA691343BB61FF
:100970007B68BA699A607B685B68BB610122FB692E
:1009800002FA03F3DB43BA691340BB613B685B685F
:100990001B0903F00102FB6902FA03F3BA6913436E
:1009A000BB617B68BA695A607B68DB68BB61FB69C5
:1009B0005B00032202FA03F3DB43BA691340BB6115
:1009C0003B689A68FB695B0002FA03F3BA69134358
:1009D000BB617B68BA69DA603B685B6803F080538F
:1009E000002B00F0B4800023FB605F4B5B6C5E4A21
:1009F00043F4804353645C4B5B6C03F48043FB60C3
:100A0000FB685A4AFB699B08023352F82330BB61EA
:100A1000FB6903F003039B000F2202FA03F3DB439D
:100A2000BA691340BB617B68514A93422BD07B6803
:100A3000504A934225D07B684F4A93421FD07B682F
:100A40004E4A934219D07B684D4A934213D07B683B
:100A50004C4A93420DD07B684B4A934207D07B6847
:100A60004A4A934201D107230EE008230CE00623F3
:100A70000AE0052308E0042306E0032304E0022340
:100A800002E0012300E00023FA6902F00302920071
:100A90009340BA691343BB613449FB699B08023335
:100AA000BA6941F823203A4B1B68BB613B69DB43C1
:100AB000BA691340BB613B685B6803F48033002B69
:100AC00003D0BA693B691343BB61314ABB69136008
:100AD0002F4B5B68BB613B69DB43BA691340BB6169
:100AE0003B685B6803F40033002B03D0BA693B69B1
:100AF0001343BB61264ABB695360254B9B68BB61AE
:100B00003B69DB43BA691340BB613B685B6803F434
:100B10008013002B03D0BA693B691343BB611C4AA5
:100B2000BB6993601A4BDB68BB613B69DB43BA6905
:100B30001340BB613B685B6803F40013002B03D0D8
:100B4000BA693B691343BB61114ABB69D360FB6956
:100B50000133FB61FB690F2B7FF690AE00BF24379A
:100B6000BD4680BC704700BF0038024000380140DD
:100B7000000002400004024000080240000C024055
:100B8000001002400014024000180240001C024005
:100B9000003C014080B483B000AF78600B467B809E
:100BA00013467B707B78002B03D07A887B689A6130
:100BB00003E07B881A047B689A6100BF0C37BD464E
:100BC00080BC704780B586B000AF78607B68002B32
:100BD00001D101232DE27B681B6803F00103002B88
:100BE00075D0A34B9B6803F00C03042B0CD0A04BD7
:100BF0009B6803F00C03082B12D19D4B5B6803F438
:100C00008003B3F5800F0BD1994B1B6803F40033BD
:100C1000002B5BD07B685B68002B57D1012308E277
:100C20007B685B68B3F5803F06D1914B1B68904AA7
:100C300043F4803313601DE07B685B68B3F5A02F3D
:100C40000CD18B4B1B688A4A43F480231360884B7A
:100C50001B68874A43F4803313600BE0844B1B68A6
:100C6000834A23F480331360814B1B68804A23F44A
:100C7000802313607B685B68002B13D0FFF7C4FCF4
:100C8000386108E0FFF7C0FC02463B69D31A642BC9
:100C900001D90323CDE1764B1B6803F40033002B0D
:100CA000F0D014E0FFF7B0FC386108E0FFF7ACFCCF
:100CB00002463B69D31A642B01D90323B9E16C4B7B
:100CC0001B6803F40033002BF0D100E000BF7B6809
:100CD0001B6803F00203002B63D0654B9B6803F095
:100CE0000C03002B0BD0624B9B6803F00C03082B0A
:100CF0001CD15F4B5B6803F48003002B16D15C4B67
:100D00001B6803F00203002B05D07B68DB68012B16
:100D100001D001238DE1564B1B6823F0F8027B685C
:100D20001B69DB00524913430B603AE07B68DB68C8
:100D3000002B20D04F4B01221A60FFF765FC386171
:100D400008E0FFF761FC02463B69D31A022B01D988
:100D500003236EE1464B1B6803F00203002BF0D027
:100D6000434B1B6823F0F8027B681B69DB0040499A
:100D700013430B6015E03F4B00221A60FFF744FC61
:100D8000386108E0FFF740FC02463B69D31A022BAA
:100D900001D903234DE1364B1B6803F00203002BFE
:100DA000F0D17B681B6803F00803002B30D07B6810
:100DB0005B69002B16D0304B01221A60FFF724FC30
:100DC000386108E0FFF720FC02463B69D31A022B8A
:100DD00001D903232DE1264B5B6F03F00203002BA7
:100DE000F0D015E0244B00221A60FFF70DFC3861AB
:100DF00008E0FFF709FC02463B69D31A022B01D930
:100E0000032316E11A4B5B6F03F00203002BF0D1B2
:100E10007B681B6803F00403002B00F0A080002314
:100E2000FB75134B1B6C03F08053002B0FD1002379
:100E3000FB600F4B1B6C0E4A43F0805313640C4B4A
:100E40001B6C03F08053FB60FB680123FB750B4BAD
:100E50001B6803F48073002B21D1084B1B68074AE1
:100E600043F480731360FFF7CFFB386111E000BFDC
:100E70000038024000004742800E474200700040A8
:100E8000FFF7C2FB02463B69D31A022B01D90323A9
:100E9000CFE06A4B1B6803F48073002BF0D07B68B3
:100EA0009B68012B06D1664B1B6F654A43F001031B
:100EB00013671CE07B689B68052B0CD1604B1B6F94
:100EC0005F4A43F0040313675D4B1B6F5C4A43F0BA
:100ED000010313670BE05A4B1B6F594A23F00103C0
:100EE0001367574B1B6F564A23F0040313677B6845
:100EF0009B68002B15D0FFF787FB38610AE0FFF7EE
:100F000083FB02463B69D31A41F28832934201D9EE
:100F100003238EE04A4B1B6F03F00203002BEED03D
:100F200014E0FFF771FB38610AE0FFF76DFB024642
:100F30003B69D31A41F28832934201D9032378E006
:100F40003F4B1B6F03F00203002BEED1FB7D012B07
:100F500005D13B4B1B6C3A4A23F0805313647B68EA
:100F60009B69002B64D0364B9B6803F00C03082B65
:100F70005CD07B689B69022B41D1324B00221A6006
:100F8000FFF742FB386108E0FFF73EFB02463B6992
:100F9000D31A022B01D903234BE0294B1B6803F022
:100FA0000073002BF0D17B68DA697B681B6A1A43F7
:100FB0007B685B6A9B011A437B689B6A5B08013B09
:100FC0001B041A437B68DB6A1B061D4913434B60F5
:100FD0001C4B01221A60FFF717FB386108E0FFF78E
:100FE00013FB02463B69D31A022B01D9032320E0ED
:100FF000134B1B6803F00073002BF0D018E0114B6B
:1010000000221A60FFF700FB386108E0FFF7FCFAE6
:1010100002463B69D31A022B01D9032309E0084B8E
:101020001B6803F00073002BF0D101E0012300E006
:10103000002318461837BD4680BD00BF0070004031
:10104000003802406000474280B584B000AF78604D
:1010500039607B68002B01D10123CAE0674B1B6814
:1010600003F00F033A689A420CD9644B3A68D2B243
:101070001A70624B1B6803F00F033A689A4201D062
:101080000123B6E07B681B6803F00203002B20D02D
:101090007B681B6803F00403002B05D0584B9B684A
:1010A000574A43F4E05393607B681B6803F00803DE
:1010B000002B05D0524B9B68514A43F46043936028
:1010C0004F4B9B6823F0F0027B689B684C491343AD
:1010D0008B607B681B6803F00103002B44D07B68A6
:1010E0005B68012B07D1464B1B6803F40033002BD0
:1010F00019D101237DE07B685B68022B03D07B68FC
:101100005B68032B07D13E4B1B6803F00073002B79
:1011100009D101236DE03A4B1B6803F00203002B59
:1011200001D1012365E0364B9B6823F003027B6805
:101130005B68334913438B60FFF766FAF8600AE097
:10114000FFF762FA0246FB68D31A41F288329342F3
:1011500001D903234DE02A4B9B6803F00C027B6806
:101160005B689B009A42EBD1244B1B6803F00F0392
:101170003A689A420CD2214B3A68D2B21A701F4B8D
:101180001B6803F00F033A689A4201D0012330E054
:101190007B681B6803F00403002B08D0184B9B6886
:1011A00023F4E0527B68DB68154913438B607B684E
:1011B0001B6803F00803002B09D0114B9B6823F434
:1011C00060427B681B69DB000D4913438B6000F0B4
:1011D0001DF801460A4B9B681B0903F00F03094ADF
:1011E000D35C21FA03F3084A1360002003F0F4FEF5
:1011F000002318461037BD4680BD00BF003C0240AA
:101200000038024030820008F00000202DE9F04351
:1012100085B000AF00237B600023FB6000233B60B0
:101220000023BB60644B9B6803F00C03042B07D0C6
:10123000082B08D0002B40F0B680604BBB60B5E0B7
:101240005F4BBB60B2E05C4B5B6803F03F037B60CD
:10125000594B5B6803F48003002B4CD0564B5B6802
:101260009B094FF0000440F2FF114FF0000203EA27
:10127000010804EA020941464A464FF000034FF0D4
:101280000004540144EAD1644B0119462246B1EBF3
:10129000080162EB09024FF000034FF000049401D3
:1012A00044EA91648B015B1A64EB02044FF0000185
:1012B0004FF00002E20042EA5372D9000B46144696
:1012C00013EB080344EB09044FF000014FF0000258
:1012D000620242EAD35259020B461446184621468E
:1012E0007B684FF000041A462346FEF771FF034661
:1012F0000C46FB6049E0304B5B689B094FF00004F3
:1013000040F2FF114FF0000203EA010504EA020671
:10131000294632464FF000034FF00004540144EADE
:10132000D1644B0119462246491B62EB06024FF07D
:1013300000034FF00004940144EA91648B015B1AAE
:1013400064EB02044FF000014FF00002E20042EAB9
:101350005372D9000B4614465B1946EB04044FF058
:1013600000014FF00002A20242EA935299020B469A
:101370001446184621467B684FF000041A4623465F
:10138000FEF726FF03460C46FB600B4B5B681B0C0D
:1013900003F0030301335B003B60FA683B68B2FB78
:1013A000F3F3BB6002E0054BBB6000BFBB681846AF
:1013B0001437BD46BDE8F083003802400024F40035
:1013C00000127A0080B400AF024B1B681846BD467D
:1013D00080BC7047F000002080B500AFFFF7F2FF3F
:1013E0000146054B9B689B0A03F00703034AD35C45
:1013F00021FA03F3184680BD0038024040820008FD
:1014000080B500AFFFF7DEFF0146054B9B685B0B25
:1014100003F00703034AD35C21FA03F3184680BDA7
:10142000003802404082000880B483B000AF78608A
:1014300039607B680F221A60114B9B6803F003022E
:101440007B685A600E4B9B6803F0F0027B689A60E1
:101450000B4B9B6803F4E0527B68DA60084B9B6897
:10146000DB0803F4E0527B681A61064B1B6803F04B
:101470000F023B681A6000BF0C37BD4680BC704746
:1014800000380240003C024080B586B000AF786072
:1014900000237B6100233B617B681B6803F0010331
:1014A000002B05D17B681B6803F00403002B35D0AB
:1014B000624B00221A60FFF7A7F8786108E0FFF797
:1014C000A3F802467B69D31A022B01D90323B0E0AB
:1014D0005B4B1B6803F00063002BF0D17B685B68FB
:1014E0009A017B689B681B0755491343C1F88430F8
:1014F000524B01221A60FFF787F8786108E0FFF786
:1015000083F802467B69D31A022B01D9032390E0AA
:101510004B4B1B6803F00063002BF0D07B681B680B
:1015200003F00203002B00F083800023FB60444B98
:101530001B6C434A43F080531364414B1B6C03F014
:101540008053FB60FB683F4B1B683E4A43F480734B
:101550001360FFF759F8786108E0FFF755F8024685
:101560007B69D31A022B01D9032362E0354B1B6838
:1015700003F48073002BF0D0314B1B6F03F44073E6
:101580003B613B69002B2FD07B68DB6803F4407321
:101590003A699A4228D02A4B1B6F23F440733B616F
:1015A000294B01221A60284B00221A60244A3B6909
:1015B0001367234B1B6F03F00103012B14D1FFF7BB
:1015C00023F878610AE0FFF71FF802467B69D31A17
:1015D00041F28832934201D903232AE0184B1B6F52
:1015E00003F00203002BEED07B68DB6803F440734A
:1015F000B3F5407F0DD1124B9B6823F4F8127B6842
:10160000DB6823F0704323F440730D4913438B6070
:1016100005E00B4B9B680A4A23F4F8139360084BD0
:101620001A6F7B68DB68C3F30B03054913430B6731
:10163000002318461837BD4680BD00BF68004742EA
:101640000038024000700040400E474280B582B032
:1016500000AF78607B68002B01D1012383E07B68B9
:101660005B7FDBB2002B05D17B6800221A7778689C
:1016700003F076FC7B6802225A777B681B68CA22DB
:101680005A627B681B6853225A62786800F0A8FA95
:101690000346002B08D07B681B68FF225A627B68D8
:1016A00004225A7701235EE07B681B689B687A6896
:1016B000126823F4E00323F0400393607B681B6807
:1016C00099687B685A687B681B691A437B685B6909
:1016D0001A437B681B680A439A607B681B687A68B8
:1016E000D2681A617B681B6819697B689B681A0459
:1016F0007B681B680A431A617B681B68DA687B6831
:101700001B6822F08002DA607B681B689B6803F02C
:101710002003002B0ED1786800F03AFA0346002B24
:1017200008D07B681B68FF225A627B6804225A77C4
:10173000012318E07B681B681A6C7B681B6822F425
:1017400080221A647B681B68196C7B689A697B68C5
:101750001B680A431A647B681B68FF225A627B6815
:1017600001225A77002318460837BD4680BD90B540
:1017700087B000AFF860B9607A6000237B61FB68D6
:101780001B7F012B01D10223AAE0FB6801221A77FB
:10179000FB6802225A777B68002B26D1FB681B6806
:1017A0009B6803F04003002B02D1BB680022DA7073
:1017B000BB681B78184600F03FFA03461C04BB6860
:1017C0005B78184600F038FA03461B021C43BB68DE
:1017D0009B78184600F030FA034644EA0302BB68DF
:1017E000DB781B0413437B6118E0FB681B689B6874
:1017F00003F04003002B02D1BB680022DA70BB6803
:101800001B781A04BB685B781B021343BA68927892
:101810001A43BB68DB781B0413437B61FB681B68BE
:10182000CA225A62FB681B6853225A62F86800F0A9
:10183000D7F90346002B0BD0FB681B68FF225A62C6
:10184000FB6804225A77FB6800221A77012347E0DD
:10185000FB681A687B6903F07F3323F0FE43136053
:10186000FB681B689A68FB681B6822F480229A60F8
:10187000FB681B689968BB68DA68BB681B691A4318
:10188000FB681B680A439A60FB681B68DA68FB68A0
:101890001B6822F08002DA60FB681B689B6803F01B
:1018A0002003002B11D1F86800F072F90346002BD9
:1018B0000BD0FB681B68FF225A62FB6804225A7730
:1018C000FB6800221A7701230AE0FB681B68FF22ED
:1018D0005A62FB6801225A77FB6800221A770023BC
:1018E00018461C37BD4690BD80B586B000AFF86085
:1018F000B9607A6000237B61FB681B689A6ABB68E9
:101900005A60FB681B681B69C3F30E02BB689A60D0
:10191000FB681B681B6803F07F3323F0FE437B6189
:101920007B691B0CDBB203F03F03DAB2BB681A70B1
:101930007B691B0ADBB203F07F03DAB2BB685A7023
:101940007B69DBB203F07F03DAB2BB689A707B6914
:101950001B0CDBB203F04003DAB2BB68DA707B68C1
:10196000002B1AD1BB681B78184600F082F9034699
:101970001A46BB681A70BB685B78184600F079F9A4
:1019800003461A46BB685A70BB689B78184600F03D
:1019900070F903461A46BB689A7000231846183738
:1019A000BD4680BD90B587B000AFF860B9607A6081
:1019B00000237B61FB681B7F012B01D1022394E094
:1019C000FB6801221A77FB6802225A777B68002B9A
:1019D0000ED1BB685B7803F01003002B08D0BB6806
:1019E0005B7823F01003DBB20A33DAB2BB685A70BB
:1019F0007B68002B1CD1BB68DB78184600F01CF913
:101A000003461C04BB685B78184600F015F90346D2
:101A10001B021C43BB689B78184600F00DF9034677
:101A200044EA0302BB681B785B0313437B610EE04F
:101A3000BB68DB781A04BB685B781B021343BA6887
:101A400092781A43BB681B785B0313437B61FB6886
:101A50001B68CA225A62FB681B6853225A62F868E4
:101A600000F0BEF80346002B0BD0FB681B68FF227A
:101A70005A62FB6804225A77FB6800221A77012316
:101A800033E0FB681A687B6923F07F4323F0C003CF
:101A90005360FB681B68DA68FB681B6822F08002F1
:101AA000DA60FB681B689B6803F02003002B11D1F0
:101AB000F86800F06DF80346002B0BD0FB681B683C
:101AC000FF225A62FB6804225A77FB6800221A77C9
:101AD00001230AE0FB681B68FF225A62FB680122AF
:101AE0005A77FB6800221A77002318461C37BD4638
:101AF00090BD80B586B000AFF860B9607A60002311
:101B00007B61FB681B685B6823F07F4323F0C003A5
:101B10007B617B691B0CDAB2BB68DA707B691B0ADC
:101B2000DBB203F01F03DAB2BB685A707B69DBB229
:101B300003F03F03DAB2BB689A707B695B0BDBB2E0
:101B400003F00703DAB2BB681A707B68002B1AD166
:101B5000BB68DB78184600F08CF803461A46BB6871
:101B6000DA70BB685B78184600F083F803461A46C3
:101B7000BB685A70BB689B78184600F07AF8034639
:101B80001A46BB689A70002318461837BD4680BDB8
:101B900080B584B000AF78600023FB607B681B6871
:101BA000DA687B681B6822F0A002DA60FEF72CFD81
:101BB000F86009E0FEF728FD0246FB68D31AB3F58A
:101BC0007A7F01D9032307E07B681B68DB6803F099
:101BD0002003002BEED0002318461037BD4680BDF1
:101BE00080B584B000AF78600023FB607B681B6821
:101BF000DB6803F04003002B19D17B681B684FF0B2
:101C0000FF32DA60FEF700FDF86009E0FEF7FCFC49
:101C10000246FB68D31AB3F57A7F01D9032307E0A4
:101C20007B681B68DB6803F04003002BEED00023C9
:101C300018461037BD4680BD80B485B000AF03465E
:101C4000FB710023FB6005E0FB680133FB60FB795F
:101C50000A3BFB71FB79092BF6D8FB68DBB21B0151
:101C6000DAB2FB791343DBB218461437BD4680BCA9
:101C7000704780B485B000AF0346FB710023FB6062
:101C8000FB791B09DBB21A4613469B0013445B0029
:101C9000FB60FB7903F00F03DAB2FB68DBB213449D
:101CA000DBB218461437BD4680BC704780B487B09D
:101CB00000AFF860B9607A6000237B61FB681B6845
:101CC00050337B61BB689B007A6913447B617B69FD
:101CD0007A681A6000BF1C37BD4680BC704780B46C
:101CE00085B000AF786039600023FB607B681B68BB
:101CF0005033FB603B689B00FA681344FB60FB6851
:101D00001B6818461437BD4680BC704780B582B04A
:101D100000AF78607B68002B01D101231DE07B6858
:101D200093F83D30DBB2002B06D17B68002283F8AC
:101D30003C20786803F0F4FA7B68022283F83D20A7
:101D40007B681A687B6804331946104600F058F91E
:101D50007B68012283F83D20002318460837BD46E2
:101D600080BD80B485B000AF78607B681B68DA689E
:101D70007B681B6842F00102DA607B681B689B6825
:101D800003F00703FB60FB68062B07D07B681B682A
:101D90001A687B681B6842F001021A60002318462B
:101DA0001437BD4680BC704780B582B000AF786004
:101DB0007B681B681B6903F00203022B22D17B683E
:101DC0001B68DB6803F00203022B1BD17B681B68D6
:101DD0006FF002021A617B6801221A777B681B6828
:101DE0009B6903F00303002B03D0786800F0EDF843
:101DF00005E0786800F0E0F8786800F0EFF87B68BC
:101E000000221A777B681B681B6903F00403042B0C
:101E100022D17B681B68DB6803F00403042B1BD111
:101E20007B681B686FF004021A617B6802221A77D4
:101E30007B681B689B6903F44073002B03D07868B0
:101E400000F0C3F805E0786800F0B6F8786800F0B4
:101E5000C5F87B6800221A777B681B681B6903F052
:101E60000803082B22D17B681B68DB6803F008039A
:101E7000082B1BD17B681B686FF008021A617B6816
:101E800004221A777B681B68DB6903F00303002BCD
:101E900003D0786800F099F805E0786800F08CF8D5
:101EA000786800F09BF87B6800221A777B681B68D3
:101EB0001B6903F01003102B22D17B681B68DB68C1
:101EC00003F01003102B1BD17B681B686FF010020E
:101ED0001A617B6808221A777B681B68DB6903F448
:101EE0004073002B03D0786800F06FF805E0786845
:101EF00000F062F8786800F071F87B6800221A77C9
:101F00007B681B681B6903F00103012B0ED17B6802
:101F10001B68DB6803F00103012B07D17B681B689A
:101F20006FF001021A61786801F0E0FC7B681B68C1
:101F30001B6903F08003802B0ED17B681B68DB6874
:101F400003F08003802B07D17B681B686FF0800251
:101F50001A61786800F03FF97B681B681B6903F021
:101F60004003402B0ED17B681B68DB6803F0400305
:101F7000402B07D17B681B686FF040021A617868BC
:101F800000F035F87B681B681B6903F02003202BE9
:101F90000ED17B681B68DB6803F02003202B07D180
:101FA0007B681B686FF020021A61786800F00AF9FC
:101FB00000BF0837BD4680BD80B483B000AF7860F5
:101FC00000BF0C37BD4680BC704780B483B000AF03
:101FD000786000BF0C37BD4680BC704780B483B0CA
:101FE00000AF786000BF0C37BD4680BC704780B43E
:101FF00083B000AF786000BF0C37BD4680BC70472F
:1020000080B485B000AF786039607B681B68FB6086
:102010007B683F4A934213D07B68B3F1804F0FD067
:102020007B683C4A93420BD07B683B4A934207D083
:102030007B683A4A934203D07B68394A934208D17D
:10204000FB6823F07003FB603B685B68FA6813432E
:10205000FB607B682E4A93422BD07B68B3F1804FA4
:1020600027D07B682B4A934223D07B682A4A93422D
:102070001FD07B68294A93421BD07B68284A934231
:1020800017D07B68274A934213D07B68264A934235
:102090000FD07B68254A93420BD07B68244A934239
:1020A00007D07B68234A934203D07B68224A93423D
:1020B00008D1FB6823F44073FB603B68DB68FA6877
:1020C0001343FB60FB6823F080023B685B691343AA
:1020D000FB607B68FA681A603B689A687B68DA6222
:1020E0003B681A687B689A627B68094A934203D00E
:1020F0007B680B4A934203D13B681A697B681A6379
:102100007B6801225A6100BF1437BD4680BC70470E
:10211000000001400004004000080040000C0040A6
:1021200000040140004001400044014000480140DB
:1021300000180040001C00400020004080B485B022
:1021400000AF786039607B6893F83C30012B01D197
:10215000022332E07B68012283F83C207B68022264
:1021600083F83D207B681B685B68FB607B681B68AD
:102170009B68BB60FB6823F07003FB603B681B68D7
:10218000FA681343FB60BB6823F08003BB603B68C5
:102190005B68BA681343BB607B681B68FA685A6067
:1021A0007B681B68BA689A607B68012283F83D20CF
:1021B0007B68002283F83C20002318461437BD4674
:1021C00080BC704780B483B000AF786000BF0C372C
:1021D000BD4680BC704780B483B000AF786000BF5C
:1021E0000C37BD4680BC704780B582B000AF7860C8
:1021F0007B68002B01D101233FE07B6893F83930E5
:10220000DBB2002B06D17B68002283F83820786887
:1022100003F002F97B68242283F839207B681B686D
:10222000DA687B681B6822F40052DA60786800F094
:102230008DFB7B681B681A697B681B6822F49042DF
:102240001A617B681B685A697B681B6822F02A0246
:102250005A617B681B68DA687B681B6842F400522D
:10226000DA607B680022DA637B68202283F83920F9
:102270007B68202283F83A20002318460837BD46A1
:1022800080BD80B588B002AFF860B9603B6013468E
:10229000FB8000237B61FB6893F83930DBB2202B95
:1022A00040F08380BB68002B02D0FB88002B01D15B
:1022B00001237BE0FB6893F83830012B01D1022326
:1022C00074E0FB68012283F83820FB680022DA639F
:1022D000FB68212283F83920FEF796F97861FB68C4
:1022E000FA889A84FB68FA88DA8442E0FB68DB8C1F
:1022F0009BB2013B9AB2FB68DA84FB689B68B3F53A
:10230000805F22D13B6800937B6900228021F868BE
:1023100000F0B2F90346002B01D0032346E0BB686E
:102320003B613B691B881A46FB681B68C2F30802C5
:102330005A60FB681B69002B03D1BB680233BB608A
:1023400017E0BB680133BB6013E03B6800937B6917
:1023500000228021F86800F08FF90346002B01D09D
:10236000032323E0BB685A1CBA601A78FB681B6819
:102370005A60FB68DB8C9BB2002BB7D13B680093A3
:102380007B6900224021F86800F076F90346002BB3
:1023900001D003230AE0FB68202283F83920FB6880
:1023A000002283F83820002300E002231846183763
:1023B000BD4680BD80B485B000AFF860B9601346FB
:1023C000FB80FB6893F83A30DBB2202B40D1BB682E
:1023D000002B02D0FB88002B01D1012339E0FB68E0
:1023E00093F83830012B01D1022332E0FB6801223F
:1023F00083F83820FB68BA689A62FB68FA889A8585
:10240000FB68FA88DA85FB680022DA63FB6822221F
:1024100083F83A20FB68002283F83820FB681B68A9
:10242000DA68FB681B6842F48072DA60FB681B683C
:102430005A69FB681B6842F001025A61FB681B681D
:10244000DA68FB681B6842F02002DA60002300E0D3
:10245000022318461437BD4680BC704780B588B04B
:1024600000AF78607B681B681B68FB617B681B683A
:10247000DB68BB617B681B685B697B6100233B6138
:102480000023FB60FB6903F00F033B613B69002BFA
:102490000DD1FB6903F02003002B08D0BB6903F0CA
:1024A0002003002B03D0786800F0CEF9CCE03B6924
:1024B000002B00F0AB807B6903F00103002B05D1FA
:1024C000BB6903F49073002B00F0A080FB6903F05C
:1024D0000103002B0AD0BB6903F48073002B05D0E5
:1024E0007B68DB6B43F001027B68DA63FB6903F016
:1024F0000403002B0AD07B6903F00103002B05D0F5
:102500007B68DB6B43F002027B68DA63FB6903F0F4
:102510000203002B0AD07B6903F00103002B05D0D6
:102520007B68DB6B43F004027B68DA63FB6903F0D2
:102530000803002B0AD07B6903F00103002B05D0B0
:102540007B68DB6B43F008027B68DA637B68DB6BDC
:10255000002B78D0FB6903F02003002B07D0BB6968
:1025600003F02003002B02D0786800F06DF97B683F
:102570001B685B6903F04003402B0CBF0123002361
:10258000DBB2FB607B68DB6B03F00803002B02D13E
:10259000FB68002B31D0786800F0B8F87B681B68C6
:1025A0005B6903F04003402B23D17B681B685A69A9
:1025B0007B681B6822F040025A617B685B6B002BD2
:1025C00013D07B685B6B224A1A657B685B6B18468D
:1025D000FEF725F90346002B16D07B685B6B1B6D5D
:1025E0007A68526B104698470EE0786800F03BF826
:1025F0000AE0786800F037F806E0786800F033F811
:102600007B680022DA631EE000BF1CE0FB6903F078
:102610008003002B08D0BB6903F08003002B03D09C
:10262000786800F0A4F80FE0FB6903F04003002B8A
:102630000AD0BB6903F04003002B05D0786800F096
:10264000EBF800BF00E000BF2037BD4680BD00BFF3
:102650004727000880B483B000AF786000BF0C3714
:10266000BD4680BC704780B483B000AF786000BFC7
:102670000C37BD4680BC704780B584B000AFF860B1
:10268000B9603B601346FB712CE0BB69B3F1FF3FBF
:1026900028D0BB69002B07D0FDF7B6FF02463B6888
:1026A000D31ABA699A421DD2FB681B68DA68FB68C4
:1026B0001B6822F4D072DA60FB681B685A69FB68F9
:1026C0001B6822F001025A61FB68202283F839203E
:1026D000FB68202283F83A20FB68002283F8382028
:1026E00003230FE0FB681B681A68BB681340BA68D5
:1026F0009A420CBF01230023DBB21A46FB799A42AF
:10270000C3D0002318461037BD4680BD80B483B0C7
:1027100000AF78607B681B68DA687B681B6822F40E
:102720009072DA607B681B685A697B681B6822F0CC
:1027300001025A617B68202283F83A2000BF0C37DF
:10274000BD4680BC704780B584B000AF78607B68C0
:102750009B6BFB60FB680022DA85FB680022DA8451
:10276000F868FFF780FF00BF1037BD4680BD80B41A
:1027700085B000AF78607B6893F83930DBB2212BED
:1027800044D17B689B68B3F5805F1AD17B681B6A74
:10279000FB60FB681B881A467B681B68C2F3080253
:1027A0005A607B681B69002B05D17B681B6A9A1CE9
:1027B0007B681A620EE07B681B6A5A1C7B681A628F
:1027C00008E07B681B6A591C7A6811621A787B687A
:1027D0001B685A607B68DB8C9BB2013B9BB27A68BA
:1027E0001946D184002B0FD17B681B68DA687B689F
:1027F0001B6822F08002DA607B681B68DA687B68FD
:102800001B6842F04002DA60002300E00223184611
:102810001437BD4680BC704780B582B000AF786089
:102820007B681B68DA687B681B6822F04002DA600C
:102830007B68202283F839207868FFF70BFF00239C
:1028400018460837BD4680BD80B584B000AF7860BB
:102850007B6893F83A30DBB2222B71D17B689B689E
:10286000B3F5805F23D17B689B6AFB607B681B6943
:10287000002B0ED17B681B685B689BB2C3F3080317
:102880009AB2FB681A807B689B6A9A1C7B689A6282
:1028900029E07B681B685B689BB2DBB29AB2FB687D
:1028A0001A807B689B6A5A1C7B689A621BE07B6873
:1028B0001B69002B0AD17B681B6858687B689B6A80
:1028C000591C7A689162C2B21A700CE07B681B686E
:1028D0005B68DAB27B689B6A581C7968886202F090
:1028E0007F02D2B21A707B68DB8D9BB2013B9BB238
:1028F0007A681946D185002B20D17B681B68DA687D
:102900007B681B6822F02002DA607B681B68DA684B
:102910007B681B6822F48072DA607B681B685A69E6
:102920007B681B6822F001025A617B68202283F8D1
:102930003A20786800F068FF002302E0002300E0FE
:10294000022318461037BD4680BD0000B0B584B0E4
:1029500000AF78607B681B681B6923F440517B687B
:10296000DA687B681B680A431A617B689A687B682F
:102970001B691A437B685B691A437B68DB691343F5
:10298000FB607B681B68DB6823F4164323F00C03B1
:102990007A681268F9680B43D3607B681B685B69CF
:1029A00023F440717B689A697B681B680A435A610B
:1029B0007B68DB69B3F5004F40F0E4807B681B68FF
:1029C000AB4A934204D07B681B68AA4A93426CD1FD
:1029D000FEF716FD024613469B0013449A001A4464
:1029E0007B685B685B00B2FBF3F3A34AA2FB0323A3
:1029F0005B091C01FEF704FD024613469B001344CD
:102A00009A001A447B685B685B00B2FBF3F5FEF743
:102A1000F7FC024613469B0013449A001A447B6855
:102A20005B685B00B2FBF3F3934AA2FB03235B09F1
:102A3000642202FB03F3EB1ADB0032338E4AA2FB63
:102A400003235B095B0003F4F8731C44FEF7D8FC16
:102A5000024613469B0013449A001A447B685B6845
:102A60005B00B2FBF3F5FEF7CBFC024613469B007E
:102A700013449A001A447B685B685B00B2FBF3F373
:102A80007D4AA2FB03235B09642202FB03F3EB1ADA
:102A9000DB003233784AA2FB03235B0903F0070211
:102AA0007B681B6822449A6054E1FEF795FC02465D
:102AB00013469B0013449A001A447B685B685B00D2
:102AC000B2FBF3F36C4AA2FB03235B091C01FEF784
:102AD00083FC024613469B0013449A001A447B6809
:102AE0005B685B00B2FBF3F5FEF776FC024613462B
:102AF0009B0013449A001A447B685B685B00B2FB3E
:102B0000F3F35D4AA2FB03235B09642202FB03F398
:102B1000EB1ADB003233584AA2FB03235B095B004C
:102B200003F4F8731C44FEF757FC024613469B005F
:102B300013449A001A447B685B685B00B2FBF3F5B0
:102B4000FEF74AFC024613469B0013449A001A44BF
:102B50007B685B685B00B2FBF3F3474AA2FB03238D
:102B60005B09642202FB03F3EB1ADB003233424AB7
:102B7000A2FB03235B0903F007027B681B68224466
:102B80009A60E7E07B681B68394A934204D07B680F
:102B90001B68384A934271D1FEF732FC0246134655
:102BA0009B0013449A001A447B685B689B00B2FB4D
:102BB000F3F3314AA2FB03235B091C01FEF720FC5F
:102BC000024613469B0013449A001A447B685B68D4
:102BD0009B00B2FBF3F5FEF713FC024613469B0085
:102BE00013449A001A447B685B689B00B2FBF3F3C2
:102BF000214AA2FB03235B09642202FB03F3EB1AC5
:102C00001B0132331C4AA2FB03235B0903F0F003D0
:102C10001C44FEF7F5FB024613469B0013449A0042
:102C20001A447B685B689B00B2FBF3F5FEF7E8FB98
:102C3000024613469B0013449A001A447B685B6863
:102C40009B00B2FBF3F30C4AA2FB03235B09642253
:102C500002FB03F3EB1A1B013233074AA2FB0323E7
:102C60005B0903F00F027B681B6822449A6071E0E5
:102C700000100140001401401F85EB51FEF7ACFB32
:102C8000024613469B0013449A001A447B685B6813
:102C90009B00B2FBF3F3314AA2FB03235B091C0147
:102CA000FEF79AFB024613469B0013449A001A440F
:102CB0007B685B689B00B2FBF3F5FEF78DFB024679
:102CC00013469B0013449A001A447B685B689B0080
:102CD000B2FBF3F3214AA2FB03235B09642202FB4C
:102CE00003F3EB1A1B0132331C4AA2FB03235B09DB
:102CF00003F0F0031C44FEF76FFB024613469B00F3
:102D000013449A001A447B685B689B00B2FBF3F59E
:102D1000FEF762FB024613469B0013449A001A44D6
:102D20007B685B689B00B2FBF3F30C4AA2FB0323B6
:102D30005B09642202FB03F3EB1A1B013233074ADF
:102D4000A2FB03235B0903F00F027B681B6822448C
:102D50009A60FFE700BF1037BD46B0BD1F85EB513D
:102D600080B500AF144800F069F84FF47A70FDF7B1
:102D700055FC114800F062F84FF47A70FDF74EFCF4
:102D80000E4800F05BF84FF47A70FDF747FC0C48F2
:102D900000F054F80B4800F051F80B4800F04EF8E2
:102DA0000A4800F04BF80A4800F048F841F2707009
:102DB000FDF734FC00BF80BDD07E0008D87E00083F
:102DC000E87E0008F47E0008FC7E0008007F000812
:102DD0000C7F000880B584B000AF134BFB60F9682E
:102DE000124802F071FF0023BB6000F073F8B86076
:102DF000FA68B9680E4800F06BF978607B68002BC0
:102E000004D079680B4802F05FFF02E00A4802F044
:102E1000E1FFF86802F0F2FB786802F0EFFB0023B4
:102E200018461037BD4680BD107F0008187F000887
:102E300004000020207F0008547F000880B582B085
:102E400000AF78607868FDF745FB03469AB24FF60D
:102E5000FF7379680348FFF714FA00BF0837BD46CF
:102E600080BD00BFC8A2002090B593B000AF7860CD
:102E700007F11003002219461448FEF735FD07F14B
:102E80000C03002219461148FEF733FEFB7B643326
:102E9000BB637B7B013B7B63BB7B3B633B7C083B36
:102EA000FB627B7CBB62BB7C7B6207F12403184620
:102EB00002F09CFC03460C461A46234604497868F7
:102EC00003F062F800BF4C37BD4690BDE0A1002082
:102ED0002080000880B5ADF50B6D06AF07F68403C2
:102EE00000221A605A601A8107F684031846FFF719
:102EF000BBFF07F2846318464FF400731A460021A3
:102F000002F092FB07F2844318464FF400731A460E
:102F1000002102F089FB07F5906300221A6007F296
:102F200084605C4B05935C4B04935C4B03935C4B5C
:102F300002935C4B01935C4B00935C4B5C4A5D4994
:102F400003F022F807F284631846FDF7C3FA03463C
:102F5000194607F5906307F2844207F2846000F097
:102F60003BFA07F58E631A460023136053609360A3
:102F7000D36007F58C631A46002313605360936097
:102F8000D36007F5187318464FF400731A460021F2
:102F900002F04AFB07F6840207F5187007F2844333
:102FA00000931346444A454902F0EEFF07F50273C9
:102FB000184600F0B3FC07F518731846FDF78AFAB7
:102FC000024607F5187107F50273184600F0CAFCAF
:102FD00007F58E6207F502731146184600F032FDC0
:102FE00007F5017300210A461A800A469A700023E9
:102FF000C7F8943819E007F58E62D7F8943813446F
:103000001B781A4607F501732D49184602F0BCFFDC
:1030100007F5017207F58C631146184602F0D4FFDC
:10302000D7F894380133C7F89438D7F894380F2B71
:10303000E1DD3B1D18464FF400731A46002102F0F3
:10304000F3FA07F68402381D07F58C63019307F243
:103050008443009313461B4A1B4902F095FF3B1D16
:103060001846FDF737FA034601330121184602F0EE
:103070008BFA0346C7F890383B1D1A461349D7F818
:10308000900802F081FFD7F89038184607F69807A5
:10309000BD4680BD48000020800000207800002050
:1030A0005400002088000020A40000209800002088
:1030B0008C00002024800008240000209C80000850
:1030C000A480000818000020AC800008E4800008FC
:1030D000F0B5ADF5825D81B000AF07F12003143B80
:1030E000186007F12003183B196007F120031C3B0F
:1030F0001A609E48FFF7A2FE9D48FFF79FFE9D487D
:10310000FFF79CFE9C48FFF799FE9C48FFF796FE50
:103110004FF4FA60FDF782FA9948FFF78FFE4FF4FB
:103120007A70FDF77BFA9748FFF788FE4FF47A70C4
:10313000FDF774FA07F120031C3B1868FDF7CAF984
:103140000346023307F5815202F11C02136007F5B2
:10315000805303F1140320220021184602F064FA80
:1031600007F120030C3B18464FF480531A46002108
:1031700002F05AFA07F120030C3B4FF48052002171
:10318000184602F051FA07F120030C3B1846FDF7F0
:10319000A1F903461A4607F120030C3B13447A4A6F
:1031A0001D4614460FCC28606960AA60EB6003CC12
:1031B0002861696123782B7607F120030C3B1846C0
:1031C000FDF788F903461A4607F120030C3B134428
:1031D0006E4A1D4614460FCC28606960AA60EB60F9
:1031E00003CC2861696107F120030C3B1846FDF709
:1031F00071F903461A4607F120030C3B1344644A55
:1032000014469C4604F1300E654626460FCE2860D3
:103210006960AA60EB6010340CF1100C7445F3D1B6
:103220006346224612781A7007F12003183B07F113
:1032300020020C3A1968104602F0C6FE07F58053CA
:1032400003F1140307F5815202F11C02126851497F
:10325000184602F099FE07F5805202F1140207F1B8
:1032600020030C3B1146184602F0AEFE07F1200386
:103270000C3B1846FDF72EF903461A4607F12003CA
:103280000C3B1344444A1068186012791A7107F114
:1032900020031C3B07F120020C3A1968104602F08B
:1032A00093FE07F120030C3B1846FDF713F9034684
:1032B0001A4607F120030C3B1344304A11889278D8
:1032C00019809A7007F120030C3B1846FFF7B6FDF2
:1032D00040F6B830FDF7A2F93048FFF7AFFD3048AF
:1032E00002F078FD002307F5815202F11802136005
:1032F0007D212C4802F085FE04467B21294802F0FE
:1033000073FE0346E31A013307F5815202F11802F6
:10331000136007F5815303F118031B680121184658
:1033200002F032F9034607F5815202F114021360EC
:103330007B211C4802F058FE014607F5815303F13A
:1033400018031B681A4607F5815303F11403186824
:1033500002F05CF907F5815303F114031B6818466A
:1033600007F582570437BD46F0BD00BFE88000086E
:10337000FC8000080C8100081081000814810008FE
:10338000188100082881000838810008548100084D
:103390006C810008A0810008B4810008BC8100088D
:1033A000C0810008D851002080B485B000AF03462A
:1033B000B9607A60FB73FA7BBB6802FA03F3FB73B4
:1033C000FA7B7B6842FA03F3FB73FB7B18461437E6
:1033D000BD4680BC7047000090B58DB000AFF8606E
:1033E000B9607A603B6000233B62FB68002B02D02F
:1033F000BB68002B04D14FF0FF333B623B6ADFE038
:103400000023FB610023FB62B9686F4B83FB013231
:10341000CB17D21A13465B001344CA1A002A0CD0E9
:10342000B968694B83FB0132CB17D21A13465B0094
:103430001344CA1AC2F10303FB62BA68FB6A13445D
:10344000FB61FB69DB00614A82FB0312DB17D31AC5
:10345000BB617B68BB6200237B62A5E0FB681B78D5
:103460009B08DBB27B615A4A7B6913441B78FB746F
:10347000BB6AFA7C1A70BA68FB6A1344033B7A6A27
:103480009A424BD1FB6A002B48D0FB6A012B2BD10F
:10349000FB681B78022206211846FFF785FF0346CA
:1034A0001C46FB6801331B78042200211846FFF7F5
:1034B0007BFF0346E218BB6A013345498A5C1A70F8
:1034C000FB6801331B78022204211846FFF76CFFCA
:1034D00003461946BB6A02333D4A525C1A70BB6A06
:1034E00003333D221A7055E0FB6A022B52D1FB6870
:1034F0001B78022206211846FFF756FF034619469D
:10350000BB6A0133324A525C1A70BB6A02333D22F5
:103510001A70BB6A03333D221A703BE0FB681B78CC
:10352000022206211846FFF73FFF03461C46FB68B0
:1035300001331B78042200211846FFF735FF0346AC
:10354000E218BB6A013322498A5C1A70FB680133B6
:103550001B78022204211846FFF726FF03461C466B
:10356000FB6802331B78062200211846FFF71CFF78
:103570000346E218BB6A023315498A5C1A70FB687D
:1035800002331B7803F03F02BB6A033310498A5CA5
:103590001A7000E000BFBB6A0433BB62FB680333F0
:1035A000FB607B6A03337B627A6AFB699A42FFF6AF
:1035B00055AF3B68002B02D03B68BA691A603B6A82
:1035C00018463437BD4690BD56555555ABAAAA2A64
:1035D000F081000880B588B000AF07F10C0300222D
:1035E0001A605A609A60DA601A610023BB601F4B50
:1035F0001B6B1E4A43F0040313631C4B1B6B03F04D
:103600000403BB60BB6800237B60184B1B6B174A2D
:1036100043F080031363154B1B6B03F080037B6047
:103620007B6800233B60114B1B6B104A43F0010386
:1036300013630E4B1B6B03F001033B603B680022DE
:1036400002210B48FDF7A6FA0223FB6001233B6130
:1036500000237B610223BB6107F10C031946044878
:10366000FDF7FEF800BF2037BD4680BD00380240A0
:103670000000024080B500AFFCF792FF00F02EF88A
:10368000FFF7A8FF01F002FC01F016FE01F070FE4A
:1036900001F098FE00F0A4F80B4B1B68986800231B
:1036A0000222002102F0AEFB012208490848FEF781
:1036B00081FE012207490848FEF77CFEFFF750FB18
:1036C000FFF788FBFEE700BFF4000020D8010020D0
:1036D00088A20020D8510020C8A2002080B598B050
:1036E00000AF07F1300330220021184601F09CFFA3
:1036F00007F11C0300221A605A609A60DA601A61AE
:1037000007F10C0300221A605A609A60DA60002305
:10371000BB60314B1B6C304A43F0805313642E4B1B
:103720001B6C03F08053BB60BB6800237B602B4B9A
:103730001B682A4A43F480431360284B1B6803F438
:1037400080437B607B6805233B634FF480337B635E
:103750000123BB630223BB644FF48003FB64042397
:103760003B65A8237B650223BB650423FB6507F14A
:1037700030031846FDF726FA0346002B01D000F06F
:10378000C7F80F23FB6102233B6200237B624FF4E7
:10379000A053BB624FF48053FB6207F11C03052169
:1037A0001846FDF751FC0346002B01D000F0B0F89D
:1037B0000223FB604FF48073BB6107F10C031846D2
:1037C000FDF762FE0346002B01D000F0A1F800BF18
:1037D0006037BD4680BD00BF003802400070004029
:1037E00080B500AF002200212620FCF7EEFF262046
:1037F000FDF707F8002200212520FCF7E6FF252031
:10380000FCF7FFFF00BF80BD80B582B000AF7860DD
:103810007B681B682D4A934227D12D4B1B68B3F55B
:10382000A04F4EDA2A4B1B682A4A9918002301221E
:103830002948FEF726FD264B1B680133254A134411
:10384000012219462548FEF7B5FD214B1B6844F6B9
:10385000FF72934203D11E4B00221A6031E01C4BD1
:103860001B6801331A4A13602BE07B681B681C4AF3
:10387000934226D11B4B1B68B3F5A04F21DA194B9D
:103880001B68194A9918002301221348FEF7F9FC16
:10389000144B1B680133144A1344012219460F4884
:1038A000FEF788FD0F4B1B6844F6FF72934203D16D
:1038B0000C4B00221A6004E00A4B1B680133094AD2
:1038C000136000BF0837BD4680BD00BF0010014037
:1038D000D8A10020D801002088A20020C8A2002082
:1038E00000440040DCA10020D851002080B582B007
:1038F00000AF78607B681B68044A934201D1FCF7F3
:1039000071FE00BF0837BD4680BD00BF000001400A
:1039100080B400AF00BFBD4680BC704780B483B0A8
:1039200000AF78607B6800221A607B6800225A60D2
:103930007B68084A9A607B68074ADA607B68074AB6
:103940001A617B68064A5A6100BF0C37BD4680BCCD
:10395000704700BF0123456789ABCDEFFEDCBA9805
:103960007654321080B588B000AFF860B9607A60E4
:103970000023FB610023BB6100237B61FB681B68A4
:10398000DB0803F03F03BB61BB69C3F140037B610C
:10399000FB681A687B68DB001A44FB681A60FB68E6
:1039A0001A687B68DB009A4204D2FB685B685A1C89
:1039B000FB685A60FB685A687B685B0F1A44FB68B7
:1039C0005A607A687B699A4228D3BB691833FA68CF
:1039D00013447A69B968184601F018FEFB6803F1D0
:1039E0000802FB6818331946104600F0E9F87B69B5
:1039F000FB610BE0FB6803F10800BA68FB69134444
:103A0000194600F0DDF8FB694033FB61FB69403388
:103A10007A689A42EED20023BB6101E00023FB6189
:103A2000BB691833FA68D018BA68FB69D1187A688C
:103A3000FB69D31A1A4601F0E9FD00BF2037BD46E5
:103A400080BD000080B586B000AF7860396000238B
:103A50007B6100233B617B681B68DB0803F03F034D
:103A60007B617B69372B03D87B69C3F1380302E0A4
:103A70007B69C3F178033B61796807F10803082289
:103A8000184600F019F83A690A497868FFF76AFFA2
:103A900007F10803082219467868FFF763FF7B687F
:103AA000083310221946386800F006F800BF1837AE
:103AB000BD4680BDAC00002080B487B000AFF86088
:103AC000B9607A6000237B6100233B6133E07B694E
:103AD0009B00BA6813441968FA683B691344CAB278
:103AE0001A707B699B00BA6813441B68190A3B690A
:103AF0000133FA681344CAB21A707B699B00BA6832
:103B000013441B68190C3B690233FA681344CAB2A8
:103B10001A707B699B00BA6813441B68190E3B69D5
:103B20000333FA681344CAB21A707B6901337B61AC
:103B30003B6904333B613A697B689A42C7D300BF53
:103B40001C37BD4680BC704780B487B000AFF860BA
:103B5000B9607A6000237B6100233B6127E0BA688B
:103B60003B6913441B7819463B690133BA68134417
:103B70001B781B0241EA03023B690233B9680B441C
:103B80001B781B041A433B690333B9680B441B7849
:103B90001B0642EA03017B699B00FA6813440A464C
:103BA0001A607B6901337B613B6904333B613A698D
:103BB0007B689A42D3D300BF1C37BD4680BC704798
:103BC00080B5C6B000AF3B1D18603B4619603B1D79
:103BD0001B681B68C7F814313B1D1B685B68C7F87E
:103BE00010313B1D1B689B68C7F80C313B1D1B68DF
:103BF000DB68C7F808313B4607F108004022196826
:103C0000FFF7A2FFD7F81021D7F80C311A40D7F8E8
:103C10001031D943D7F808310B401A4307F1080394
:103C20001B681A44D7F814311A44F14B1344C7F8EF
:103C30001431D7F814314FEA7363C7F81431D7F849
:103C40001421D7F810311344C7F81431D7F81421D0
:103C5000D7F810311A40D7F81431D943D7F80C31BE
:103C60000B401A4307F108035B681A44D7F8083180
:103C70001A44E04B1344C7F80831D7F808314FEA2B
:103C80003353C7F80831D7F80821D7F81431134453
:103C9000C7F80831D7F80821D7F814311A40D7F8F7
:103CA0000831D943D7F810310B401A4307F1080304
:103CB0009B681A44D7F80C311A44CF4B1344C7F809
:103CC0000C31D7F80C314FEAF333C7F80C31D7F881
:103CD0000C21D7F808311344C7F80C31D7F80C2160
:103CE000D7F808311A40D7F80C31D943D7F8143136
:103CF0000B401A4307F10803DB681A44D7F8103168
:103D00001A44BE4B1344C7F81031D7F810314FEAAC
:103D1000B323C7F81031D7F81021D7F80C3113446A
:103D2000C7F81031D7F81021D7F80C311A40D7F85E
:103D30001031D943D7F808310B401A4307F1080373
:103D40001B691A44D7F814311A44AD4B1344C7F811
:103D50001431D7F814314FEA7363C7F81431D7F828
:103D60001421D7F810311344C7F81431D7F81421AF
:103D7000D7F810311A40D7F81431D943D7F80C319D
:103D80000B401A4307F108035B691A44D7F808315E
:103D90001A449C4B1344C7F80831D7F808314FEA4E
:103DA0003353C7F80831D7F80821D7F81431134432
:103DB000C7F80831D7F80821D7F814311A40D7F8D6
:103DC0000831D943D7F810310B401A4307F10803E3
:103DD0009B691A44D7F80C311A448B4B1344C7F82B
:103DE0000C31D7F80C314FEAF333C7F80C31D7F860
:103DF0000C21D7F808311344C7F80C31D7F80C213F
:103E0000D7F808311A40D7F80C31D943D7F8143114
:103E10000B401A4307F10803DB691A44D7F8103145
:103E20001A447A4B1344C7F81031D7F810314FEACF
:103E3000B323C7F81031D7F81021D7F80C31134449
:103E4000C7F81031D7F81021D7F80C311A40D7F83D
:103E50001031D943D7F808310B401A4307F1080352
:103E60001B6A1A44D7F814311A44694B1344C7F833
:103E70001431D7F814314FEA7363C7F81431D7F807
:103E80001421D7F810311344C7F81431D7F814218E
:103E9000D7F810311A40D7F81431D943D7F80C317C
:103EA0000B401A4307F108035B6A1A44D7F808313C
:103EB0001A44584B1344C7F80831D7F808314FEA71
:103EC0003353C7F80831D7F80821D7F81431134411
:103ED000C7F80831D7F80821D7F814311A40D7F8B5
:103EE0000831D943D7F810310B401A4307F10803C2
:103EF0009B6A1A44D7F80C311344A3F524434F3B73
:103F0000C7F80C31D7F80C314FEAF333C7F80C314E
:103F1000D7F80C21D7F808311344C7F80C31D7F87B
:103F20000C21D7F808311A40D7F80C31D943D7F80B
:103F300014310B401A4307F10803DB6A1A44D7F81F
:103F400010311A44344B1344C7F81031D7F81031EC
:103F50004FEAB323C7F81031D7F81021D7F80C3146
:103F60001344C7F81031D7F81021D7F80C311A4094
:103F7000D7F81031D943D7F808310B401A4307F16D
:103F800008031B6B1A44D7F814311A44234B13440B
:103F9000C7F81431D7F814314FEA7363C7F81431F6
:103FA000D7F81421D7F810311344C7F81431D7F8D3
:103FB0001421D7F810311A40D7F81431D943D7F863
:103FC0000C310B401A4307F108035B6B1A44D7F816
:103FD00008311A44124B1344C7F80831D7F8083196
:103FE0004FEA3353C7F80831D7F808211AE000BF69
:103FF00078A46AD756B7C7E8DB702024EECEBDC1DF
:10400000AF0F7CF52AC68747134630A8019546FDB9
:10401000D8988069AFF7448BBED75C892211906B2A
:10402000937198FDD7F814311344C7F80831D7F8C5
:104030000821D7F814311A40D7F80831D943D7F8F6
:1040400010310B401A4307F108039B6B1A44D7F851
:104050000C311A44F04B1344C7F80C31D7F80C312B
:104060004FEAF333C7F80C31D7F80C21D7F80831F1
:104070001344C7F80C31D7F80C21D7F808311A408F
:10408000D7F80C31D943D7F814310B401A4307F154
:104090000803DB6B1A44D7F810311A44DF4B134482
:1040A000C7F81031D7F810314FEAB323C7F81031F1
:1040B000D7F81021D7F80C311344C7F81031D7F8CE
:1040C0001021D7F808311A40D7F80831D943D7F86A
:1040D0000C310B401A4307F108035B681A44D7F808
:1040E00014311A44CE4B1344C7F81431D7F81431A5
:1040F0004FEAF363C7F81431D7F81421D7F8103119
:104100001344C7F81431D7F81421D7F80C311A40EA
:10411000D7F80C31D943D7F810310B401A4307F1C7
:1041200008039B691A44D7F808311A44BD4B13445D
:10413000C7F80831D7F808314FEAF353C7F8083108
:10414000D7F80821D7F814311344C7F80831D7F845
:104150000821D7F810311A40D7F81031D943D7F8D1
:1041600014310B401A4307F10803DB6A1A44D7F8ED
:104170000C311A44AC4B1344C7F80C31D7F80C314E
:104180004FEAB343C7F80C31D7F80C21D7F8083100
:104190001344C7F80C31D7F80C21D7F814311A4062
:1041A000D7F81431D943D7F808310B401A4307F137
:1041B00008031B681A44D7F810311A449B4B134468
:1041C000C7F81031D7F810314FEA3333C7F8103140
:1041D000D7F81021D7F80C311344C7F81031D7F8AD
:1041E0001021D7F808311A40D7F80831D943D7F849
:1041F0000C310B401A4307F108035B691A44D7F8E6
:1042000014311A448A4B1344C7F81431D7F81431C7
:104210004FEAF363C7F81431D7F81421D7F81031F7
:104220001344C7F81431D7F81421D7F80C311A40C9
:10423000D7F80C31D943D7F810310B401A4307F1A6
:1042400008039B6A1A44D7F808311A44794B13447F
:10425000C7F80831D7F808314FEAF353C7F80831E7
:10426000D7F80821D7F814311344C7F80831D7F824
:104270000821D7F810311A40D7F81031D943D7F8B0
:1042800014310B401A4307F10803DB6B1A44D7F8CB
:104290000C311A44684B1344C7F80C31D7F80C3171
:1042A0004FEAB343C7F80C31D7F80C21D7F80831DF
:1042B0001344C7F80C31D7F80C21D7F814311A4041
:1042C000D7F81431D943D7F808310B401A4307F116
:1042D00008031B691A44D7F810311A44574B13448A
:1042E000C7F81031D7F810314FEA3333C7F810311F
:1042F000D7F81021D7F80C311344C7F81031D7F88C
:104300001021D7F808311A40D7F80831D943D7F827
:104310000C310B401A4307F108035B6A1A44D7F8C3
:1043200014311A44464B1344C7F81431D7F81431EA
:104330004FEAF363C7F81431D7F81421D7F81031D6
:104340001344C7F81431D7F81421D7F80C311A40A8
:10435000D7F80C31D943D7F810310B401A4307F185
:1043600008039B6B1A44D7F808311A44354B1344A1
:10437000C7F80831D7F808314FEAF353C7F80831C6
:10438000D7F80821D7F814311344C7F80831D7F803
:104390000821D7F810311A40D7F81031D943D7F88F
:1043A00014310B401A4307F10803DB681A44D7F8AD
:1043B0000C311A44244B1344C7F80C31D7F80C3194
:1043C0004FEAB343C7F80C31D7F80C21D7F80831BE
:1043D0001344C7F80C31D7F80C21D7F814311A4020
:1043E000D7F81431D943D7F808310B401A4307F1F5
:1043F00008031B6A1A44D7F810311A44134B1344AC
:10440000C7F81031D7F810314FEA3333C7F81031FD
:10441000D7F810211CE000BF8E4379A62108B449CB
:1044200062251EF640B340C0515A5E26AAC7B6E9BF
:104430005D102FD65314440281E6A1D8C8FBD3E700
:10444000E6CDE121D60737C3870DD5F4ED145A45E3
:10445000D7F80C311344C7F81031D7F81021D7F82A
:1044600008311A40D7F80831D943D7F80C310B403E
:104470001A4307F108035B6B1A44D7F814311A4446
:10448000EF4B1344C7F81431D7F814314FEAF363F4
:10449000C7F81431D7F81421D7F810311344C7F8EE
:1044A0001431D7F81421D7F80C311A40D7F80C3151
:1044B000D943D7F810310B401A4307F108039B6822
:1044C0001A44D7F808311A44DE4B1344C7F80831B0
:1044D000D7F808314FEAF353C7F80831D7F8082165
:1044E000D7F814311344C7F80831D7F80821D7F8A2
:1044F00010311A40D7F81031D943D7F814310B4096
:104500001A4307F10803DB691A44D7F80C311A443F
:10451000CD4B1344C7F80C31D7F80C314FEAB343F5
:10452000C7F80C31D7F80C21D7F808311344C7F875
:104530000C31D7F80C21D7F814311A40D7F81431C0
:10454000D943D7F808310B401A4307F108031B6B16
:104550001A44D7F810311A44BC4B1344C7F8103131
:10456000D7F810314FEA3333C7F81031D7F810219C
:10457000D7F80C311344C7F81031D7F81021D7F809
:104580000C315A40D7F808315A4007F108035B69EB
:104590001A44D7F814311344A3F5B823A3F2BE6329
:1045A000C7F81431D7F814314FEA3373C7F8143110
:1045B000D7F81421D7F810311344C7F81431D7F8BD
:1045C0001421D7F810315A40D7F80C315A4007F16E
:1045D00008031B6A1A44D7F808311A449C4B134449
:1045E000C7F80831D7F808314FEA7353C7F80831D4
:1045F000D7F80821D7F814311344C7F80831D7F891
:104600000821D7F814315A40D7F810315A4007F131
:104610000803DB6A1A44D7F80C311A448D4B134453
:10462000C7F80C31D7F80C314FEA3343C7F80C31D7
:10463000D7F80C21D7F808311344C7F80C31D7F854
:104640000C21D7F808315A40D7F814315A4007F1F5
:1046500008039B6B1A44D7F810311A447E4B13445D
:10466000C7F81031D7F810314FEA7323C7F810316B
:10467000D7F81021D7F80C311344C7F81031D7F808
:104680001021D7F80C315A40D7F808315A4007F1B9
:1046900008035B681A44D7F814311A446F4B13446B
:1046A000C7F81431D7F814314FEA3373C7F814310F
:1046B000D7F81421D7F810311344C7F81431D7F8BC
:1046C0001421D7F810315A40D7F80C315A4007F16D
:1046D00008031B691A44D7F808311A44604B134485
:1046E000C7F80831D7F808314FEA7353C7F80831D3
:1046F000D7F80821D7F814311344C7F80831D7F890
:104700000821D7F814315A40D7F810315A4007F130
:104710000803DB691A44D7F80C311A44514B13448F
:10472000C7F80C31D7F80C314FEA3343C7F80C31D6
:10473000D7F80C21D7F808311344C7F80C31D7F853
:104740000C21D7F808315A40D7F814315A4007F1F4
:1047500008039B6A1A44D7F810311A44424B134499
:10476000C7F81031D7F810314FEA7323C7F810316A
:10477000D7F81021D7F80C311344C7F81031D7F807
:104780001021D7F80C315A40D7F808315A4007F1B8
:1047900008035B6B1A44D7F814311A44334B1344A3
:1047A000C7F81431D7F814314FEA3373C7F814310E
:1047B000D7F81421D7F810311344C7F81431D7F8BB
:1047C0001421D7F810315A40D7F80C315A4007F16C
:1047D00008031B681A44D7F808311A44244B1344C1
:1047E000C7F80831D7F808314FEA7353C7F80831D2
:1047F000D7F80821D7F814311344C7F80831D7F88F
:104800000821D7F814315A40D7F810315A4007F12F
:104810000803DB681A44D7F80C311A44154B1344CB
:10482000C7F80C31D7F80C314FEA3343C7F80C31D5
:10483000D7F80C21D7F808311344C7F80C311BE026
:1048400005E9E3A9F8A3EFFCD9026F678A4C2A8D2A
:1048500081F6718722619D6D0C38E5FD44EABEA4A6
:10486000A9CFDE4B604BBBF670BCBFBEC67E9B289B
:10487000FA27A1EA8530EFD4D7F80C21D7F8083110
:104880005A40D7F814315A4007F108039B691A447B
:10489000D7F810311A44F04B1344C7F81031D7F849
:1048A00010314FEA7323C7F81031D7F81021D7F829
:1048B0000C311344C7F81031D7F81021D7F80C3158
:1048C0005A40D7F808315A4007F108035B6A1A4486
:1048D000D7F814311A44E14B1344C7F81431D7F810
:1048E00014314FEA3373C7F81431D7F81421D7F8CD
:1048F00010311344C7F81431D7F81421D7F8103108
:104900005A40D7F80C315A4007F108031B6B1A4480
:10491000D7F808311A44D24B1344C7F80831D7F8F6
:1049200008314FEA7353C7F80831D7F80821D7F890
:1049300014311344C7F80831D7F80821D7F81431D7
:104940005A40D7F810315A4007F10803DB6B1A447C
:10495000D7F80C311A44C34B1344C7F80C31D7F8BD
:104960000C314FEA3343C7F80C31D7F80C21D7F894
:1049700008311344C7F80C31D7F80C21D7F80831A7
:104980005A40D7F814315A4007F108039B681A447B
:10499000D7F810311A44B44B1344C7F81031D7F884
:1049A00010314FEA7323C7F81031D7F81021D7F828
:1049B0000C311344C7F81031D7F80831DA43D7F86F
:1049C00010311A43D7F80C315A4007F108031B681D
:1049D0001A44D7F814311A44A44B1344C7F81431BD
:1049E000D7F814314FEAB363C7F81431D7F814215C
:1049F000D7F810311344C7F81431D7F80C31DA4323
:104A0000D7F814311A43D7F810315A4007F1080388
:104A1000DB691A44D7F808311A44954B1344C7F898
:104A20000831D7F808314FEAB353C7F80831D7F83F
:104A30000821D7F814311344C7F80831D7F81031DA
:104A4000DA43D7F808311A43D7F814315A4007F13E
:104A500008039B6B1A44D7F80C311A44854B134456
:104A6000C7F80C31D7F80C314FEA7343C7F80C3153
:104A7000D7F80C21D7F808311344C7F80C31D7F810
:104A80001431DA43D7F80C311A43D7F808315A40B9
:104A900007F108035B691A44D7F810311A44764BC2
:104AA0001344C7F81031D7F810314FEAF323C7F891
:104AB0001031D7F81021D7F80C311344C7F8103152
:104AC000D7F80831DA43D7F810311A43D7F80C3148
:104AD0005A4007F108031B6B1A44D7F814311A44E3
:104AE000664B1344C7F81431D7F814314FEAB36357
:104AF000C7F81431D7F81421D7F810311344C7F888
:104B00001431D7F80C31DA43D7F814311A43D7F8F7
:104B100010315A4007F10803DB681A44D7F808310E
:104B20001A44574B1344C7F80831D7F808314FEAF5
:104B3000B353C7F80831D7F80821D7F81431134414
:104B4000C7F80831D7F81031DA43D7F808311A43DB
:104B5000D7F814315A4007F108039B6A1A44D7F872
:104B60000C311344A3F58013A3F68333C7F80C313B
:104B7000D7F80C314FEA7343C7F80C31D7F80C2142
:104B8000D7F808311344C7F80C31D7F81431DA4399
:104B9000D7F80C311A43D7F808315A4007F1080307
:104BA0005B681A44D7F810311A44364B1344C7F8DF
:104BB0001031D7F810314FEAF323C7F81031D7F886
:104BC0001021D7F80C311344C7F81031D7F8083149
:104BD000DA43D7F810311A43D7F80C315A4007F1AD
:104BE00008031B6A1A44D7F814311A44264B13449D
:104BF000C7F81431D7F814314FEAB363C7F814314A
:104C0000D7F81421D7F810311344C7F81431D7F866
:104C10000C31DA43D7F814311A43D7F810315A401F
:104C200007F10803DB6B1A44D7F808311A44174B15
:104C30001344C7F80831D7F808314FEAB353C7F81F
:104C40000831D7F80821D7F814311344C7F80831D0
:104C5000D7F81031DA431BE0051D880439D0D4D9C8
:104C6000E599DBE6F87CA21F6556ACC4442229F422
:104C700097FF2A43A72394AB39A093FCC3595B65E4
:104C800092CC0C8FD15D84854F7EA86FE0E62CFE20
:104C9000D7F808311A43D7F814315A4007F10803FE
:104CA0009B691A44D7F80C311A44724B1344C7F865
:104CB0000C31D7F80C314FEA7343C7F80C31D7F8F1
:104CC0000C21D7F808311344C7F80C31D7F8143148
:104CD000DA43D7F80C311A43D7F808315A4007F1B4
:104CE00008035B6B1A44D7F810311A44624B134423
:104CF000C7F81031D7F810314FEAF323C7F8103155
:104D0000D7F81021D7F80C311344C7F81031D7F871
:104D10000831DA43D7F810311A43D7F80C315A402A
:104D200007F108031B691A44D7F814311A44534B8E
:104D30001344C7F81431D7F814314FEAB363C7F8F6
:104D40001431D7F81421D7F810311344C7F81431AF
:104D5000D7F80C31DA43D7F814311A43D7F81031A9
:104D60005A4007F10803DB6A1A44D7F808311A449D
:104D7000434B1344C7F80831D7F808314FEAB3530F
:104D8000C7F80831D7F80821D7F814311344C7F809
:104D90000831D7F81031DA43D7F808311A43D7F879
:104DA00014315A4007F108039B681A44D7F80C31B4
:104DB0001A44344B1344C7F80C31D7F80C314FEA7E
:104DC0007343C7F80C31D7F80C21D7F808311344D6
:104DD000C7F80C31D7F81431DA43D7F80C311A433D
:104DE000D7F808315A4007F108035B6A1A44D7F82C
:104DF00010311A44244B1344C7F81031D7F810313E
:104E00004FEAF323C7F81031D7F81021D7F80C3147
:104E10001344C7F810313B1D1B681A68D7F81431CA
:104E20001A443B1D1B681A603B1D1B68043319683C
:104E30003B1D1B680433D7F810210A441A603B1D40
:104E40001B68083319683B1D1B680833D7F80C2111
:104E50000A441A603B1D1B680C3319683B1D1B6814
:104E60000C33D7F808210A441A6000BF07F58C7785
:104E7000BD4680BD144301A3A111084E827E53F7A5
:104E800035F23ABDBBD2D72A91D386EB80B586B036
:104E900000AF3B1D00221A605A609A60DA601A6106
:104EA00000233B602C4B2D4A1A602B4B00225A608A
:104EB000294B7F229A60284BFF22DA60264B002282
:104EC0001A61254B00225A61234B00229A61224825
:104ED000FCF7BCFB0346002B01D0FEF719FD0121B6
:104EE0001D48FCF7FCFE024643F2F2239A422ED004
:104EF00043F2F22201211848FCF7D8FE20233B712F
:104F000038237B710023BB7100233B6100237B614D
:104F10003B1D012219461048FCF729FC0346002BD3
:104F200001D0FEF7F5FC02233B7010237B70222397
:104F3000BB701923FB703B46012219460648FCF75B
:104F400031FD0346002B03D0FEF7E2FC00E000BF7A
:104F50001837BD4680BD00BFE0A1002000280040FA
:104F600080B483B000AF78607B681B68054A9342C9
:104F700002D1054B01221A6000BF0C37BD4680BC30
:104F8000704700BF002800403C0E474280B483B009
:104F900000AF00237B600F4B5B6C0E4A43F48043F1
:104FA00053640C4B5B6C03F480437B607B68002391
:104FB0003B60084B1B6C074A43F080531364054B5E
:104FC0001B6C03F080533B603B6800BF0C37BD4651
:104FD00080BC70470038024080B58CB000AF78606C
:104FE0000023FB620023BB62002279681920FBF7D3
:104FF000ECFB1920FBF705FC0023FB601F4B5B6CEF
:105000001E4A43F0010353641C4B5B6C03F0010325
:10501000FB60FB6807F1100207F114031146184604
:10502000FCF702FAFCF7ECF903465B00FB62FB6A53
:10503000134AA2FB03239B0C013BBB62114B124A98
:105040001A60104B40F2E732DA600E4ABB6A5360D6
:105050000C4B00221A610B4B00229A600948FCF7A6
:1050600055FE0346002B04D10648FCF77AFE0346A2
:1050700000E0012318463037BD4680BD00380240AD
:1050800083DE1B4300A200200000014080B400AF7B
:1050900000BFBD4680BC704780B400AFFEE780B45F
:1050A00000AFFEE780B400AFFEE780B400AFFEE7DC
:1050B00080B400AF00BFBD4680BC704780B400AF75
:1050C00000BFBD4680BC704780B400AF00BFBD4686
:1050D00080BC704780B400AF00BFBD4680BC704745
:1050E00080B500AF0248FCF75FFE00BF80BD00BF87
:1050F00000A2002080B500AF0248FDF7AFF900BF65
:1051000080BD00BF88A2002080B500AF0248FDF737
:10511000A5F900BF80BD00BFC8A2002080B500AFC8
:105120000248FCF741FE00BF80BD00BF48A200203E
:1051300080B586B000AFF860B9607A6000237B610B
:105140000AE0AFF300800146BB685A1CBA60CAB2DD
:105150001A707B6901337B617A697B689A42F0DB64
:105160007B6818461837BD4680BD80B586B000AF55
:10517000F860B9607A6000237B6109E0BB685A1C63
:10518000BA601B78184600F0C3F97B6901337B6174
:105190007A697B689A42F1DB7B6818461837BD460E
:1051A00080BD000080B584B000AF7860114B1B68F3
:1051B000002B02D10F4B104A1A600E4B1B68FB608C
:1051C0000C4B1A687B6813446A46934207D900F077
:1051D000E3F902460C2313604FF0FF3306E0054B62
:1051E0001A687B681344034A1360FB68184610373B
:1051F000BD4680BD44A2002048A3002080B483B0F7
:1052000000AF78604FF0FF3318460C37BD4680BCC6
:10521000704780B483B000AF786039603B684FF46A
:1052200000525A60002318460C37BD4680BC7047B8
:1052300080B483B000AF7860012318460C37BD46B8
:1052400080BC704780B485B000AFF860B9607A6008
:10525000002318461437BD4680BC704780B400AFA9
:10526000124B1B68114A43F0010313600F4B0022DD
:105270009A600E4B1B680D4A23F0847323F480332D
:1052800013600A4B0A4A5A60084B1B68074A23F40A
:1052900080231360054B0022DA60064B4FF000625A
:1052A0009A6000BFBD4680BC704700BF0038024016
:1052B0001030002400ED00E080B582B000AF3B4626
:1052C00000221A605A60144B144A1A60124B0022D2
:1052D0005A60114B00229A600F4B0022DA600E4B8D
:1052E00000229A610C48FCF711FD0346002B01D007
:1052F000FEF70EFB00233B6000237B603B46194614
:105300000548FCF71BFF0346002B01D0FEF700FB0E
:1053100000BF0837BD4680BD48A2002000100040F5
:1053200080B584B000AF78607B681B680E4A9342FA
:1053300015D10023FB600D4B1B6C0C4A43F010038E
:1053400013640A4B1B6C03F01003FB60FB68002224
:1053500000213620FBF739FA3620FBF752FA00BF5E
:105360001037BD4680BD00BF00100040003802402D
:1053700080B500AF114B124A1A60104B4FF4E13266
:105380005A600E4B00229A600C4B0022DA600B4BE5
:1053900000221A61094B0C225A61084B00229A61C3
:1053A000064B0022DA610548FCF71EFF0346002B7E
:1053B00001D0FEF7ADFA00BF80BD00BF88A200207B
:1053C0000010014080B500AF114B124A1A60104B1B
:1053D0004FF4E1325A600E4B00229A600C4B0022CF
:1053E000DA600B4B00221A61094B0C225A61084B00
:1053F00000229A61064B0022DA610548FCF7F4FEB0
:105400000346002B01D0FEF783FA00BF80BD00BF2A
:10541000C8A200200044004080B58CB000AF786086
:1054200007F11C0300221A605A609A60DA601A6160
:105430007B681B68324A93422DD10023BB61314BFC
:105440005B6C304A43F0100353642E4B5B6C03F0EB
:105450001003BB61BB6900237B612A4B1B6B294A8C
:1054600043F001031363274B1B6B03F001037B61C4
:105470007B694FF4C063FB6102233B6201237B62C3
:105480000323BB620723FB6207F11C0319461E4876
:10549000FBF7E6F930E07B681B681C4A93422BD18E
:1054A00000233B61174B1B6C164A43F40033136413
:1054B000144B1B6C03F400333B613B690023FB601E
:1054C000104B1B6B0F4A43F0010313630D4B1B6B17
:1054D00003F00103FB60FB680C23FB6102233B62CA
:1054E00001237B620323BB620723FB6207F11C03DA
:1054F00019460548FBF7B4F900BF3037BD4680BDFB
:10550000001001400038024000000240004400400A
:1055100080B582B000AF7860391D4FF6FF7301226D
:105520000348FCF7AEFE7B6818460837BD4680BDD1
:1055300088A20020DFF834D0002103E00C4B5B5838
:10554000435004310B480C4B42189A42F6D30B4A95
:1055500002E0002342F8043B094B9A42F9D3FFF7DB
:105560007DFE00F01FF8FEF785F87047000002206E
:105570000885000800000020B8010020B8010020C4
:1055800044A30020FEE70000024B0A4601461868CB
:1055900000F0E4BAF4000020014B1868704700BF27
:1055A000F400002070B50D4D0D4C641BA4100026B6
:1055B000A64209D10B4D0C4C02F07EFC641BA410DA
:1055C0000026A64205D170BD55F8043B9847013628
:1055D000EEE755F8043B98470136F2E700850008EE
:1055E000008500080085000804850008024B01467C
:1055F000186800F00FBB00BFF4000020024B01460A
:10560000186800F0B9BA00BFF40000200A449142C3
:1056100000F1FF3300D1704710B511F8014B03F8CA
:10562000014F9142F9D110BD02440346934200D18B
:10563000704703F8011BF9E7F7B501683B290446F9
:1056400011D93C22684600F0E7FF019A636800998F
:10565000002A0B446360BBBF3C3203F1FF3322607E
:105660002260B8BF636061683B2911D93C2268465B
:1056700000F0D2FF019AA3680099002A0B44A360AE
:10568000BBBF3C3203F1FF3362606260B8BFA3600E
:10569000A168172911D91822684600F0BDFF019AA8
:1056A000E3680099002A0B44E360BBBF183203F1A2
:1056B000FF33A260A260B8BFE36021690B2911D952
:1056C0000C22684600F0A8FF019A63690099002A3D
:1056D0000B446361BBBF0C3203F1FF3322612261D3
:1056E000B8BF63616369990720D1642193FBF1F22C
:1056F00001FB1232E2B903F26C734FF4C87193FBF1
:10570000F1F201FB1233002B14BF1C231D23E268AE
:10571000002A0FDC344F0B2664204FF4C875D4F8F0
:105720000CC0BCF1000F14DD03B0F0BD1C23EEE78C
:105730001D23ECE72C4F4FF0000C64254FF4C87686
:10574000D4E90312012A2FD057F8220081422EDC1F
:10575000EAE7216901392161013114D16369591ED8
:105760008A07C4E9046117D191FBF0F200FB121122
:10577000A1B903F26B7393FBF5F205FB1233002B17
:1057800014BF1C231D232269012A14BF57F82220AD
:105790001A466244E260C2E71C23F4E71D23F2E7E5
:1057A0001C23CDE71D23CBE78B42BDDA184601321F
:1057B000091A0C2AE1602261C2D163695A1C91075F
:1057C000C4E904C2ECD192FBF5F105FB1122002AD9
:1057D000E8D103F26D7393FBF6F206FB1233002B54
:1057E00014BF1C231D23ABE74C8200082DE9F04FAA
:1057F0008BB0064601F01CF907463046FFF71CFF48
:10580000D6E900234FF03C0AB06875690AFB032310
:105810004FF4616A0AFB003AD6E90343B94A52F8E9
:105820002320013C012B144411DDA9070FD1642270
:1058300095FBF2F302FB135343B905F26C714FF47D
:10584000C87291FBF2F302FB131303B9013405F59F
:105850001C53103344F620629342F46100F27881C5
:10586000462D7EDD462340F26D1E64214FF4C87044
:105870009A0770D1B3FBF1F201FB1232002A6DD10D
:1058800003F26C7CBCFBF0F200FB12C2002A14BFD6
:1058900072464FF4B77201339D421444E8D19A4BDB
:1058A0004FEAEA7BC3FB04ABCDE900AB00F066FC3A
:1058B00000F070FC954BD3F80090B9F1000F42D086
:1058C000D6F8209070697B68B9F1010F00F26C7016
:1058D000C846A8BF4FF00108834240F08480D7E952
:1058E0001223D7F828E0D7F850C0B2EB0E0A63EBCA
:1058F000EE7BCDE90223DDE900235245604673EBE0
:105900000B034FEAE071CDE906AB73DA3B6A1B1A71
:1059100004937B6A63EB01033968059300297AD00D
:10592000DDE90401DDE900AB82457BEB010305DB2A
:10593000DDE9060182457BEB010374DBB9F1000F61
:105940004FF0000974DADDE900ABBB6A1AEB030A19
:105950004BEBE37BB7E040F26D129CE74FF4B7727C
:1059600099E79CD0452340F26D1E64214FF4C87026
:1059700012E062BB93FBF1F201FB123252BB03F265
:105980006C7C9CFBF0F200FB12C2002A14BF724632
:105990004FF4B772A41A013B9D4203F00302E8DB07
:1059A000DAB9642295FBF2F302FB1353C3B905F293
:1059B0006C714FF4C87291FBF2F302FB1313002BCE
:1059C00040F26D1308BF4FF4B773E41A67E740F273
:1059D0006D12DFE74FF4B772DCE740F26D13F4E7C6
:1059E0004FF4B773F1E700F021FB00287FF477AFA5
:1059F000C1465BE0029BB3EB0C030893039B63EB94
:105A000001030993DDE908ABDDE90023524573EB9F
:105A10000B03EDDB7AE7DDE90401DDE900AB82454C
:105A20007BEB010384DBB9F1000F43DB4FF001098D
:105A300088EA0908B8F1010F38D1B9F1000F55D043
:105A4000AEEB0C033268D6F80C801A443260DDE904
:105A50000012C91842EBE3723046CDE90012FFF79D
:105A6000EBFDF268B2EB080220D0012A41DC901C69
:105A7000D8BF0122F369D318144449D56A1E91078F
:105A80003AD1642192FBF1F301FB1323BBBB05F276
:105A90006B754FF4C87295FBF2F302FB1355002DA2
:105AA00040F26D1318BF4FF4B673F361B9F1010FF3
:105AB0007FF449AFDDE900AB3B6D1AEB030A4BEB1A
:105AC000E37B4FF0010900F05FFB0434072394FBF4
:105AD000F3F3C3EBC303E41A48BF0734C6F82090BE
